S00F00005350495F4E52462E73726563E4
S11300000C9434000C9451000C9451000C94510045
S11300100C9451000C9451000C9451000C94510018
S11300200C9451000C9451000C9451000C94510008
S11300300C9451000C9451000C9451000C945100F8
S11300400C9451000C9451000C9451000C945100E8
S11300500C9451000C9451000C9451000C945100D8
S11300600C9451000C94510011241FBECFEFD8E022
S1130070DEBFCDBF11E0A0E0B1E0ECEBF4E002C0E4
S113008005900D92A432B107D9F721E0A4E2B1E0C2
S113009001C01D92A432B207E1F70E9453000C94F0
S11300A05C020C9400000E944F020E94900178941C
S11300B0FFCF29988F710E9456028FEF0E9456023B
S11300C0299A0895CF93C62F29988F7180620E9430
S11300D056028C2F0E945602299ACF910895EF92CE
S11300E0FF920F931F93CF93DF937B01142F2998D3
S11300F08F7180620E945602112371F0E701115042
S1130100012F10E00F5F1F4F0E0D1F1D89910E94DC
S11301105602C017D107D1F7299ADF91CF911F91C9
S11301200F91FF90EF900895FC013596A62FB72FFD
S11301309C0192919D93E217F307D9F70895CF9309
S1130140DF9300D000D01F92CDB7DEB79B018111A1
S113015016C085E0FB01AEE1B1E001900D928A95F5
S1130160E1F7BE016F5F7F4FC9010E94940045E033
S1130170BE016F5F7F4F8AE00E946F0056C08130DE
S1130180B1F485E0FB01A9E1B1E001900D928A95FB
S1130190E1F7BE016F5F7F4FC9010E94940045E003
S11301A0BE016F5F7F4F8BE00E946F003EC08230C4
S11301B071F485E0FB01A4E1B1E001900D928A9510
S11301C0E1F7FB0164818CE00E9462002EC0833061
S11301D071F485E0FB01AFE0B1E001900D928A95E6
S11301E0E1F7FB0164818DE00E9462001EC084304F
S11301F071F485E0FB01AAE0B1E001900D928A95CB
S1130200E1F7FB0164818EE00E9462000EC085303C
S113021061F4FB01A5E0B1E001900D928A95E1F74C
S1130220FB0164818FE00E9462000F900F900F9099
S11302300F900F90DF91CF910895CF93DF9300D06B
S113024000D01F92CDB7DEB725E0FC01A0E0B1E0FD
S113025001900D922A95E1F7BE016F5F7F4F0E94D6
S1130260940045E0BE016F5F7F4F8AE00E946F00FB
S113027045E0BE016F5F7F4F80E10E946F000F90E9
S11302800F900F900F900F90DF91CF9108952998C0
S113029082EE0E945602299A0895299881EE0E94BE
S11302A05602299A08956EE171E080E00E949F0051
S11302B080E00E945900682F616080E00E94620023
S11302C080E00E945900682F626080E00E94620012
S11302D060E787E00E9462000E9447010E944D018E
S11302E0289A82E38A95F1F7089586E00E945900DE
S11302F0682F666086E00E946200089586E00E948E
S11303005900682F677D86E00E946200089580E0AE
S11303100E945900682F6C6080E00E94620008957A
S1130320219A209A0E944F022898299A81EE94E0FB
S11303300197F1F700C000000E9475010E947E0140
S11303400E94870167E484E00E94620060E08CE11F
S11303500E9462006CE485E00E94620060E181E139
S11303600E94620060E182E10E94620060E183E138
S11303700E94620060E184E10E94620060E185E124
S11303800E94620060E186E10E94620060E082E017
S11303900E94620082E00E945900682F616082E03E
S11303A00E94620082E00E945900682F626082E02D
S11303B00E94620082E00E945900682F646082E01B
S11303C00E94620082E00E945900682F686082E007
S11303D00E94620082E00E945900682F606182E0FE
S11303E00E94620082E00E945900682F606282E0ED
S11303F00E94620081E00E945900682F616081E0E0
S11304000E94620081E00E945900682F626081E0CE
S11304100E94620081E00E945900682F646081E0BC
S11304200E94620081E00E945900682F686081E0A8
S11304300E94620081E00E945900682F606181E09F
S11304400E94620081E00E945900682F606281E08E
S11304500E9462006EE171E080E00E949F0069E109
S113046071E081E00E949F0064E171E082E00E94FB
S11304709F006FE071E083E00E949F006AE071E0FA
S113048084E00E949F0065E071E085E00E949F0087
S113049080E091E00E941D010E945301089588E2CA
S11304A084B981E58CBD81E08DBD08958EBD0DB408
S10F04B007FEFDCF8EB50895F894FFCF31
S11304BCE8E8F0F0E2C1C2C2C2C6C1C2C2C2C5C140
S11304CCC2C2C2C4C1C2C2C2C3C1C2C2C2C2E8E8AF
S10704DCF0F0E20056
S9030000FC
