S00F00005350495F4E52462E73726563E4
S11300000C9434000C943E000C943E000C943E007E
S11300100C943E000C943E000C943E000C943E0064
S11300200C943E000C943E000C943E000C943E0054
S11300300C943E000C943E000C943E000C943E0044
S11300400C943E000C943E000C943E000C943E0034
S11300500C943E000C943E000C943E000C943E0024
S11300600C943E000C943E0011241FBECFEFD8E048
S1130070DEBFCDBF0E9440000C945B000C940000D6
S113008080E284B90E94510081E40E9456002FEF5F
S113009089E698E1215080409040E1F700C00000DB
S11300A0F3CF88E284B981E58CBD08958EBD0DB48B
S10D00B007FEFDCF0895F894FFCF7A
S9030000FC
