S00F00005350495F4E52462E73726563E4
S11300000C9434000C9449000C9449000C9449005D
S11300100C9449000C9449000C9449000C94490038
S11300200C9449000C9449000C9449000C94490028
S11300300C9449000C9449000C9449000C94490018
S11300400C9449000C9449000C9449000C94490008
S11300500C9449000C9449000C9449000C944900F8
S11300600C9449000C94490011241FBECFEFD8E032
S1130070DEBFCDBF11E0A0E0B1E0EAECF0E002C0E9
S113008005900D92A230B107D9F70E944B000C9451
S113009063000C9400000E945900C1E0D0E08C2F52
S11300A09091000191118D2F809300010E945E00B8
S11300B0F6CF88E284B981E58CBD08958EBD0DB478
S10D00C007FEFDCF0895F894FFCF6A
S10500CAFF0031
S9030000FC
